:020000040000FA
:10000000A80120206D0100007101000073010000B3
:1000100000000000000000000000000000000000E0
:10002000000000000000000000000000750100005A
:1000300000000000000000007701000079010000CE
:100040007B0100007B0100007B0100007B010000C0
:100050007B0100007B0100007B0100007B010000B0
:10006000000000007B0100007B0100000000000098
:10007000000000007B0100007B0100007B0100000C
:100080007B0100007B0100007B0100007B01000080
:100090007B0100007B010000000000000000000068
:1000A0007B0100007B010000000000000000000058
:1000B0007B010000000000007B01000051020000F5
:1000C00000F002F800F042F812A030C808382418F6
:1000D0002D18AC4201D100F039F80FCCA246AB4646
:1000E0000CA730CF2D1B083F3F197C427F1E544484
:1000F0002D090426F441641EAC4201D300F026F819
:100100000126334200D0FB1A3343984754465D46DC
:10011000DFE700007403000084030000000000001B
:100120007047000000000000002300240025002686
:10013000103A01D378C1FBD8520700D330C100D5A3
:100140000B6070471FB51FBD10B510BD00F027F83C
:100150001146FFF7F7FF00F0E1F800F03FF803B4B5
:10016000FFF7F2FF03BC00F045F800000648004727
:10017000FEE7FEE7FEE7FEE7FEE7FEE70348044989
:10018000024A044B70470000C1000000A800202074
:10019000A8012020A80020207047704770477546AE
:1001A00000F024F8AE46050069465346C008C0007A
:1001B000854618B020B5FFF7E1FF60BCB6460026C3
:1001C0000027C0C5C0C5C0C5C0C5C0C5C0C5C0C565
:1001D000C0C5403D490849008D46704710B50446EA
:1001E000C046C0462046FFF7BAFF10BD0048704722
:1001F0000000202001491820ABBEFEE726000200C7
:100200007047811E091F00BFFCD2704770B50B01FB
:10021000C31854689568254394892C431569566919
:100220002543D48924012C43350125430924640244
:100230001D51137852781A43BF231A408900401881
:10024000024944589C43A218425070BD101100004E
:1002500004480068C0B2012802D17348012101702E
:100260007047C04620B0424080B506480121016277
:1002700002680A43026004480021044AFFF7C6FFEF
:1002800080BDC04628B0424000A04240300400007B
:1002900080B5FFF7E9FF80BD704700000D480021E1
:1002A00001600320C1430C48021F13680B40136018
:1002B0004168012291434160110242688A434260D1
:1002C000016830229143016001680F22914301606F
:1002D0007047C04608030B4004010B4080B500F096
:1002E00007F8FFF7D9FFFFF7D9FFFFF7D1FF80BD70
:1002F00080B5064806494160064A516006490160DA
:1003000011601020FFF77DFF80BDC04600080A4045
:10031000030000B100280A4001000026FFF7DEFFBD
:100320000123D8073C4908603C4C3D4860603D498A
:10033000A1601022E26022680225154325603A4A36
:100340000025157025681D4325601478002C08D100
:100350001478002C05D11478002C02D11478002CCC
:10036000F3D0324A13703F23DB43CC18266CC518F8
:100370002F6CBE1B774277411678701E86413E4037
:100380001670606C6E6C301A464246411078471EFB
:10039000B84130401070A06CAE6C301A46424641F5
:1003A0001078471EB84130401070E06CEE6C301A87
:1003B000464246411078471EB84130401070206DCB
:1003C0002E6D301A464246411078471EB8413040E3
:1003D0001070606D6E6D301A464246411078471EAF
:1003E000B84130401070A06DAE6D301A46424641A3
:1003F0001078471EB84130401070E86DE46D001B66
:10040000444244411078451EA841204010700448E1
:100410002033AAD100BEFEE700E100E000B2424076
:10042000480400006400202060002020A400202058
:1004300000000000000000100000000000020002A8
:100440000000030000000300000000001010101066
:10045000202020203030303040404040505050501C
:10046000606060607070707080808080909090900C
:10047000A0A0A0A0B0B0B0B0C0C0C0C0D0D0D0D0FC
:10048000E0E0E0E0F0F0F0F0980400000000202050
:08049000A80100002801000092
:04000005000000C136
:00000001FF
