:020000040000FA
:10000000180220206D010000710100007301000042
:1000100000000000000000000000000000000000E0
:10002000000000000000000000000000750100005A
:1000300000000000000000007701000079010000CE
:100040007B0100007B0100007B0100007B010000C0
:100050007B0100007B0100007B0100007B010000B0
:10006000000000007B0100007B0100000000000098
:10007000000000007B0100007B0100007B0100000C
:10008000B90500007B0100007B0100007B0100003E
:100090007B0100007B010000000000000000000068
:1000A0007B0100007B010000000000000000000058
:1000B0007B010000000000007B0100007B010000CC
:1000C00000F002F800F042F812A030C808382418F6
:1000D0002D18AC4201D100F039F80FCCA246AB4646
:1000E0000CA730CF2D1B083F3F197C427F1E544484
:1000F0002D090426F441641EAC4201D300F026F819
:100100000126334200D0FB1A3343984754465D46DC
:10011000DFE70000C4070000D40700000000000073
:100120007047000000000000002300240025002686
:10013000103A01D378C1FBD8520700D330C100D5A3
:100140000B6070471FB51FBD10B510BD00F027F83C
:100150001146FFF7F7FF00F051FA00F03FF803B443
:10016000FFF7F2FF03BC00F045F800000648004727
:10017000FEE7FEE7FEE7FEE7FEE7FEE70348044989
:10018000024A044B70470000C10000001801202003
:1001900018022020180120207047704770477546CC
:1001A00000F024F8AE46050069465346C008C0007A
:1001B000854618B020B5FFF7E1FF60BCB6460026C3
:1001C0000027C0C5C0C5C0C5C0C5C0C5C0C5C0C565
:1001D000C0C5403D490849008D46704710B50446EA
:1001E000C046C0462046FFF7BAFF10BD0048704722
:1001F0000000202001491820ABBEFEE726000200C7
:100200007047811E091F00BFFCD27047890040184B
:100210008C4940587047C046F0B585B02F4A8518C4
:1002200011221202821803924A7A521ED3B2012678
:100230000024022B019400960DD852B2920028A4FB
:10024000A7584924E60134465C43A4190294274C7C
:10025000A2585B1C03E002222346029437464C68F6
:1002600004956C60CE688F252E4016433122D20152
:1002700084189B00E258AA433243E250CD688E2690
:100280003540BA00A758B743ED19009E3543A55035
:10029000624C0019C458574D2C40154EA419641CCB
:1002A000C45083582B409B1983500398019A0260D5
:1002B0000878012801D0029A02E02020029A024325
:1002C000087ABD2101401143049B18684C4A024042
:1002D0000A4302201043186005B0F0BD0418000066
:1002E000000000000300000002000000A808000059
:1002F00001000200F0B53C4A82183C4BC318087953
:100300004E793B4D3B4C002E23D0202804D00526AF
:10031000F601002803D003E0374E002800D18826DC
:10032000576F2F4037435767976F2F403743976773
:10033000566B26405663966B26409663002656659C
:1003400096658F26F6435F6837405F609F68374049
:100350009F608E79096820280BD0002819D1491E8A
:100360005160D76E2F4088210F43D76617467037EC
:1003700019E0491E5160D16E29401F4F3943D166A3
:10038000116F294039431167012149071B4D174659
:1003900009E049085160D76E2F400521C9010F437C
:1003A000D766174670373C682C400C433C60D16AD6
:1003B000104C2140D162116B214011630021D164A6
:1003C00011658F21C943D46F0C40D4671C680C4061
:1003D0001C600643BD2030401168094B0B40C0181B
:1003E000801C1060F0BDC046041800008418000096
:1003F00024493E008888FDFF01040000FFFFFFCF75
:100400004000FFCF10B507239B04194092008018CD
:10041000024A84589C436118815010BD3018000076
:1004200010B5029CA400001911431943014A8150E0
:1004300010BDC0465018000092008018014A81503B
:100440007047C0461018000010B50122120383182F
:100450000C789C604B7883508978014A815010BD9C
:100460000C11000010B5904C08492046FFF7ECFF36
:1004700007492046FFF7D0FE0648016821220A43BB
:10048000026005480121016010BDC046C40800009B
:10049000B40800002850084008510840044886214C
:1004A00001600121C903034A11600349816070475B
:1004B00080804240D0320A4084000400B0B582B04F
:1004C000134C14492046FFF7BFFF13492046FFF79E
:1004D00011FF72480168114A0A4002600025009528
:1004E000204629462A462B46FFF79AFF20462946F2
:1004F0002A46FFF787FF7D20810020462A46FFF726
:100500009BFF074801218160016002B0B0BDC04679
:1005100000A08640C7080000CC0800007F00FFFF55
:1005200000B18640094800210160094801460839A8
:100530000A6803239A430A6001680122914301601B
:10054000110202688A4302607047C04608030B40EC
:1005500008010B4080B500F00FF8FFF79FFFFFF791
:10056000E1FFFFF7ABFFFFF77DFF9C200149002271
:100570000A5480BD6C00202010B50948094941602B
:10058000094A5160094B5960094C61600949016091
:100590001160196021601020FFF733FE10BDC046C6
:1005A00000080A40030000B100280A4000A8864065
:1005B000004808400100002680B50E480068C0B21F
:1005C000012813D0062814D12E480178002906D01E
:1005D00035480121FFF71AFE314908602B480121F7
:1005E0000170294800680449086080BD2548002141
:1005F000017080BD2050084000580840FFF7AAFF56
:100600001F4841681F4A002414701F4A11601F4F81
:100610003C701F490C601F490C6001210A041E4BED
:100620001A6002680A4302601C4802680A430260BA
:100630001C4E13E03C701448056819480068281ADD
:10064000306019482146FFF7E1FD291A642048432C
:10065000316800F02DF81549086000BE3878002890
:10066000E8D120BF38780028E4D120BF38780028AE
:10067000E0D120BF38780028DCD120BFEEE7C046AB
:10068000045808400C01202068002020640020202D
:100690001850084018B0864000E100E004B88640D9
:1006A000600020201401202000400840100120207C
:1006B00043088B421AD3002203098B4279D3030AE1
:1006C0008B425ED3030B8B4242D3030C8B4227D366
:1006D0000902FF2212BA030C8B4202D31212090242
:1006E00003D0030B8B4233D31AE0D3E0411A80418D
:1006F000401C704703460B4371D443088B42F5D32B
:10070000002203098B4254D3030A8B4239D3030BD3
:100710008B421DD3030C8B4202D394466EE0090A30
:10072000C30B8B4201D3CB03C01A5241830B8B42C4
:1007300001D38B03C01A5241430B8B4201D34B03AD
:10074000C01A5241030B8B4201D30B03C01A524112
:10075000C30A8B4201D3CB02C01A5241830A8B4297
:1007600001D38B02C01A5241430A8B4201D34B0280
:10077000C01A5241030A8B4201D30B02C01A5241E4
:10078000CDD2C3098B4201D3CB01C01A5241830998
:100790008B4201D38B01C01A524143098B4201D3D2
:1007A0004B01C01A524103098B4201D30B01C01AFD
:1007B0005241C3088B4201D3CB00C01A5241830877
:1007C0008B4201D38B00C01A524143088B4201D3A4
:1007D0004B00C01A5241411A524110007047CA0FD3
:1007E00000D04942031000D34042534000229C46AF
:1007F00003098B422DD3030A8B4212D38901FC22B9
:1008000012BA030A8B420CD3890192118B4208D38E
:10081000890192118B4204D3890137D0921100E0F3
:100820008909C3098B4201D3CB01C01A5241830904
:100830008B4201D38B01C01A524143098B4201D331
:100840004B01C01A524103098B4201D30B01C01A5C
:100850005241C3088B4201D3CB00C01A52418308D6
:100860008B4201D38B00C01A5241D9D243088B422C
:1008700001D34B00C01A5241411A00D201465241E5
:10088000104663465B1000D34042704763465B10DE
:1008900000D3404201B50021004201D0C9430846BF
:1008A000C046C04602BD000000000000020000007B
:1008B0000000000000000000FFFF0000000000003A
:1008C000000000000800FF0800FF0000E80300002F
:1008D0000000000000000000E808000000002020E8
:0808E0001802000028010000CD
:04000005000000C136
:00000001FF
